S00C00006D61696E2E7372656373
S113000000F4FF1F45050000A5050000A50500003C
S113001000000000000000000000000000000000DC
S1130020000000000000000000000000A505000022
S11300300000000000000000A5050000A505000068
S11300404505000045050000450500004505000084
S113005000000000450500004505000045050000BE
S11300604505000045050000450500004505000064
S11300704505000045050000450500004505000054
S11300804505000045050000450500004505000044
S1130090450500004505000045050000000000007E
S11300A04505000045050000450500004505000024
S11300B0450500000000000045050000450500005E
S113041080B582B000AF00237B6002E07B680133CB
S11304207B607B68034A9342F8DDC046BD4602B058
S113043080BDC0463F420F0080B500AF034B802211
S1130440D202DA60C046BD4680BDC04640F00F40CF
S113045080B500AF034B80221203DA60C046BD466C
S113046080BDC04640F00F4080B500AF024B022271
S1130470DA60C046BD4680BDC0F00F4080B500AF15
S11304802A4A88235B010021D1502849274A284B56
S1130490D3588022D2001343254A8B502349234A40
S11304A0234BD358802252011343214A8B50214BB2
S11304B0802252009A641F4B80225200DA641E4B41
S11304C0802252005A601D4B8022D2025A601B4B7C
S11304D0802212035A601A4B02225A60174B174AA1
S11304E052698021C9020A435A61144B134A526962
S11304F0802109030A435A61114B114A52690221AE
S11305000A435A61FFF798FFFFF782FFFFF794FF52
S1130510FFF79EFFFFF77CFFFFF79AFFFFF7A4FFAB
S1130520FFF776FFFFF7A0FFECE7C046007004403A
S11305303810000000A0044000C0044040F00F4008
S1130540C0F00F4080B582B000AF114B7B60114BFF
S11305503B6007E03B681A1D3A607A68111D7960B8
S113056012681A603A680C4B9A42F3D30B4B3B6007
S113057004E03B681A1D3A6000221A603A68084B8E
S11305809A42F6D3FFF77AFFC046BD4602B080BD5B
S1130590C405000000F0FF1F00F0FF1F00F0FF1F64
S10F05A000F0FF1F80B500AFFEE7C0466E
S10F05AC0DC0A0E1F8DF2DE904B04CE222
S10F05B80DC0A0E1F8DF2DE904B04CE216
S9030410E8
